:100000000C942A000C9441020C9447000C94470075
:100010000C9447000C9447000C9447000C94470044
:100020000C9447000C9447000C9447000C94730206
:100030000C9447000C9447000C9447000C94470024
:100040000C9447000C9447000C9447000C94470014
:100050000C94470011241FBECFE5D8E0DEBFCDBF12
:1000600010E0A0E6B0E0E4E6F9E002C005900D92F1
:10007000A637B107D9F720E0A6E7B0E001C01D928E
:10008000AC39B207E1F70E9426010C94B0040C943D
:10009000000087B38F6087BB88B3807F88BB8FEFFA
:1000A00084BB15BA08950F931F93CF93DF938C01F0
:1000B000C6E7D0E09C01ADECBCEC0E94A104AC0111
:1000C0005695479556954795569547959A01220F0F
:1000D000331FCA01880F991F880F991F880F991F16
:1000E000820F931FF801E81BF90BE05AFF4F808144
:1000F00088839A010E94A104969587959695879585
:10010000969587959C01220F331F880F991F880FA2
:10011000991F880F991F820F931F481B590BFA01D3
:10012000E05AFF4F8081898398013695279536954F
:100130002795ABE7B4E10E94A104AC015695479521
:100140009A01ADECBCEC0E94A1049695879596951A
:100150008795969587959C01220F331F880F991FCD
:10016000880F991F880F991F820F931F481B590BE7
:10017000FA01E05AFF4F80818A83980136952795CE
:100180003695279536952795A5ECB0E20E94A104F7
:10019000AC01529542954F7045275F7045279A01F3
:1001A000ADECBCEC0E94A104969587959695879539
:1001B000969587959C01220F331F880F991F880FF2
:1001C000991F880F991F820F931F481B590BFA0123
:1001D000E05AFF4F80818B83DF91CF911F910F9168
:1001E000089588B38F6088BBC098E6E7F0E083810C
:1001F00085BB8FE99FE00197F1F700C0000088B34D
:100200008F6088BBC198828185BB8FE99FE0019791
:10021000F1F700C0000088B38F6088BBC29881816D
:1002200085BB8FE99FE00197F1F700C0000088B31C
:100230008F6088BBC398808185BB8FE99FE0019761
:10024000F1F700C000008FEF85BB08958DE090E0CE
:1002500090939900809398000E9449000E944F015A
:100260000E945E0189E190E00E94D6020E94C602CF
:100270008AE590E090939B0080939A001BBC1ABC87
:10028000789419BC18BC2FEF80E792E02150804091
:100290009040E1F700C000000E94F100FDCF1092F5
:1002A0008F0010928E0010929300109292008A9804
:1002B000929A80E48BBF81E085BF089583B7856003
:1002C00083BF12BE89B7816089BF109291001092DE
:1002D0009000109295001092940008954F925F92B2
:1002E0006F927F928F929F92AF92BF92CF92DF9246
:1002F000EF92FF9280919400909195006091980008
:1003000070919900681B790B072E000C880B990BD4
:100310000E947F036B017C0160938A0070938B00C5
:1003200080938C0090938D002091860030918700FF
:1003300040918800509189000E94E2024B015C01CB
:1003400020E030E84BEB54E40E942F0418164CF0E8
:100350008092860090928700A0928800B0928900D7
:100360000CC080E090E8ABEBB4E4809386009093FF
:100370008700A0938800B0938900A701960160913F
:100380007E0070917F0080918000909181000E949A
:10039000E1024B015C0160938200709383008093C3
:1003A00084009093850020918600309187004091D1
:1003B00088005091890060916E0070916F0080916B
:1003C0007000909171000E9434042B013C01209137
:1003D0007200309173004091740050917500C70114
:1003E000B6010E9434049B01AC01C301B2010E941A
:1003F000E2026B017C0120916A0030916B00409118
:100400006C0050916D00C501B4010E9434049B0141
:10041000AC01C701B6010E94E20260937A007093BA
:100420007B0080937C0090937D000E944E0379BDF9
:1004300068BD28B539B586B597B58217930720F4FE
:1004400086B597B599BD88BD80918A0090918B0043
:10045000A0918C00B0918D0080937E0090937F00DE
:10046000A0938000B0938100FF90EF90DF90CF9039
:10047000BF90AF909F908F907F906F905F904F90C4
:1004800008951F920F920FB60F9211242F938F93FE
:100490009F9380918E0090918F00019690938F0092
:1004A00080938E0080919400909195000196909396
:1004B00095008093940080918E0090918F008439F4
:1004C00092404CF08091920090919300019690930D
:1004D0009300809392009F918F912F910F900FBE68
:1004E0000F901F9018951F920F920FB60F92112424
:1004F0002F933F934F935F936F937F938F939F932C
:10050000AF93BF93EF93FF938091960090919700E4
:10051000019690939700809396000E946E018091BF
:100520009600909197000A9754F0809194009091D2
:1005300095000E94530010929700109296008FEF42
:100540000E94DD0284E10E94DD028EE10E94DD0254
:1005500088E20E94DD0282E30E94DD0288E70E94B9
:10056000DD021092950010929400FF91EF91BF91DF
:10057000AF919F918F917F916F915F914F913F913B
:100580002F910F900FBE0F901F90189581B380632D
:1005900081BB80EB94E097BD86BD82EA8FBD89E187
:1005A0008EBD1BBC1ABC19BC18BC089590BD89B97E
:1005B00088E18AB98EE880BD08955D9BFECF8CB935
:1005C00008955058BB27AA270E94F9020C94F503FE
:1005D0000E94E70338F00E94EE0320F039F49F3FB9
:1005E00019F426F40C94E4030EF4E095E7FB0C9464
:1005F000DE03E92F0E94060458F3BA176207730757
:100600008407950720F079F4A6F50C9428040EF4DD
:10061000E0950B2EBA2FA02D0B01B90190010C0112
:10062000CA01A0011124FF27591B99F0593F50F42A
:10063000503E68F11A16F040A22F232F342F442782
:10064000585FF3CF469537952795A795F04053957A
:10065000C9F77EF41F16BA0B620B730B840BBAF04A
:100660009150A1F0FF0FBB1F661F771F881FC2F7B5
:100670000EC0BA0F621F731F841F48F487957795C9
:100680006795B795F7959E3F08F0B0CF9395880F83
:1006900008F09927EE0F9795879508950E940E040C
:1006A00088F09F5798F0B92F9927B751B0F0E1F033
:1006B000660F771F881F991F1AF0BA95C9F714C0E3
:1006C000B13091F00E942804B1E008950C94280400
:1006D000672F782F8827B85F39F0B93FCCF386951C
:1006E00077956795B395D9F73EF490958095709579
:1006F00061957F4F8F4F9F4F0895E89409C097FBF6
:100700003EF490958095709561957F4F8F4F9F4FE8
:100710009923A9F0F92F96E9BB279395F69587952C
:1007200077956795B795F111F8CFFAF4BB0F11F4EF
:1007300060FF1BC06F5F7F4F8F4F9F4F16C0882396
:1007400011F096E911C0772321F09EE8872F762FCC
:1007500005C0662371F096E8862F70E060E02AF00D
:100760009A95660F771F881FDAF7880F96958795F9
:1007700097F90895990F0008550FAA0BE0E8FEEFCE
:1007800016161706E807F907C0F012161306E40755
:10079000F50798F0621B730B840B950B39F40A264E
:1007A00061F0232B242B252B21F408950A2609F42C
:1007B000A140A6958FEF811D811D089597F99F6730
:1007C00080E870E060E008959FEF80EC08950024D9
:1007D0000A941616170618060906089500240A94A6
:1007E00012161306140605060895092E0394000C2C
:1007F00011F4882352F0BB0F40F4BF2B11F460FFBB
:1008000004C06F5F7F4F8F4F9F4F089557FD9058E3
:10081000440F551F59F05F3F71F04795880F97FBC4
:10082000991F61F09F3F79F087950895121613067E
:100830001406551FF2CF4695F1DF08C016161706AD
:100840001806991FF1CF86957105610508940895E2
:10085000E894BB2766277727CB0197F908950E9474
:10086000BA0308F48FEF08950E9447040C94F5032F
:100870000E94E70338F00E94EE0320F0952311F068
:100880000C94DE030C94E40311240C9429040E94BC
:10089000060470F3959FC1F3950F50E0551F629FBA
:1008A000F001729FBB27F00DB11D639FAA27F00DC9
:1008B000B11DAA1F649F6627B00DA11D661F829FF0
:1008C0002227B00DA11D621F739FB00DA11D621FD5
:1008D000839FA00D611D221F749F3327A00D611DF2
:1008E000231F849F600D211D822F762F6A2F1124D4
:1008F0009F5750409AF0F1F088234AF0EE0FFF1F07
:10090000BB1F661F771F881F91505040A9F79E3F5D
:10091000510580F00C94DE030C9429045F3FE4F34E
:10092000983ED4F3869577956795B795F795E795B3
:100930009F5FC1F7FE2B880F911D9695879597F9BC
:100940000895A29FB001B39FC001A39F700D811DA8
:100950001124911DB29F700D811D1124911D0895C8
:04096000F894FFCF39
:1009640081F34961332505F10121000020419A9961
:06097400993F0000C8419C
:00000001FF
